:100000000C9434000C9451000C9451000C94510049
:100010000C9451000C9451000C9451000C9451001C
:100020000C9451000C9451000C9451000C9451000C
:100030000C9451000C9451000C9451000C945100FC
:100040000C9451000C9451000C9451000C945100EC
:100050000C9451000C9451000C9451000C945100DC
:100060000C9451000C94510011241FBECFEFD8E026
:10007000DEBFCDBF11E0A0E0B1E0E8E7F1E002C0F3
:1000800005900D92AE30B107D9F721E0AEE0B1E0B6
:1000900001C01D92A431B207E1F70E9487000C94C1
:1000A000BA000C9400002098219822982398089573
:1000B000CF93C82F8A3051F09091C00095FFFCCFAC
:1000C000C093C60080E090E0CF91089560E070E0BA
:1000D0008DE00E945800F0CF1092C50089E1809316
:1000E000C4001092C00088E18093C10086E0809334
:1000F000C20080E091E09093110180931001089577
:100100008091C00087FFFCCF8091C60008950E94B7
:100110006C0053E542E53CE422E496E4189B0EC0F3
:10012000199B13C01A9B18C01B991DC08091C00059
:1001300085FFFCCF4093C6001899F2CF8091C00094
:1001400085FFFCCF9093C600E9CF8091C00085FF6A
:10015000FCCF2093C600E2CF8091C00085FFFCCF8A
:100160003093C600DBCF8091C00085FFFCCF509359
:08017000C600D4CFF894FFCFC4
:0E01780000000002000000005800000000001F
:00000001FF
