:100000000C9434000C9451000C9451000C94510049
:100010000C9451000C9451000C9451000C9451001C
:100020000C9451000C9451000C9451000C9451000C
:100030000C9451000C9451000C9451000C945100FC
:100040000C9451000C9451000C9451000C945100EC
:100050000C9451000C9451000C9451000C945100DC
:100060000C9451000C94510011241FBECFEFD8E026
:10007000DEBFCDBF11E0A0E0B1E0ECECF1E002C0EA
:1000800005900D92AE30B107D9F721E0AEE0B1E0B6
:1000900001C01D92A431B207E1F70E9487000C94C1
:1000A000E4000C9400002098219822982398089549
:1000B000CF93C82F8A3051F09091C00095FFFCCFAC
:1000C000C093C60080E090E0CF91089560E070E0BA
:1000D0008DE00E945800F0CF1092C50089E1809316
:1000E000C4001092C00088E18093C10086E0809334
:1000F000C20080E091E09093110180931001089577
:100100008091C00087FFFCCF8091C60008950E94B7
:100110006C000E94530091E322E333E344E3E8E3FD
:1001200077E366E355E318991EC0199923C01A991D
:1001300028C01B992DC0189B02C01A9930C0189B6B
:1001400002C01B9933C0199B02C01A9936C0199B73
:10015000EACF1B9BE8CF8091C00085FFFCCFE093E6
:10016000C600189BE2CF8091C00085FFFCCF909322
:10017000C600D9CF8091C00085FFFCCF2093C60078
:10018000D2CF8091C00085FFFCCF3093C600CBCF8B
:100190008091C00085FFFCCF4093C600C4CF809102
:1001A000C00085FFFCCF5093C600BDCF8091C0003A
:1001B00085FFFCCF6093C600B6CF8091C00085FF5D
:0C01C000FCCF7093C600AFCFF894FFCFC7
:0E01CC000000000200000000580000000000CB
:00000001FF
